{
  "contractName": "Notarize",
  "abi": [
    {
      "inputs": [],
      "stateMutability": "nonpayable",
      "type": "constructor"
    },
    {
      "anonymous": false,
      "inputs": [
        {
          "indexed": true,
          "internalType": "uint256",
          "name": "documentCounter",
          "type": "uint256"
        },
        {
          "indexed": false,
          "internalType": "string",
          "name": "documentUrl",
          "type": "string"
        },
        {
          "indexed": false,
          "internalType": "bytes32",
          "name": "documentHash",
          "type": "bytes32"
        }
      ],
      "name": "DocHashAdded",
      "type": "event"
    },
    {
      "anonymous": false,
      "inputs": [
        {
          "indexed": true,
          "internalType": "address",
          "name": "previousOwner",
          "type": "address"
        },
        {
          "indexed": true,
          "internalType": "address",
          "name": "newOwner",
          "type": "address"
        }
      ],
      "name": "OwnershipTransferred",
      "type": "event"
    },
    {
      "anonymous": false,
      "inputs": [
        {
          "indexed": true,
          "internalType": "bytes32",
          "name": "role",
          "type": "bytes32"
        },
        {
          "indexed": true,
          "internalType": "bytes32",
          "name": "previousAdminRole",
          "type": "bytes32"
        },
        {
          "indexed": true,
          "internalType": "bytes32",
          "name": "newAdminRole",
          "type": "bytes32"
        }
      ],
      "name": "RoleAdminChanged",
      "type": "event"
    },
    {
      "anonymous": false,
      "inputs": [
        {
          "indexed": true,
          "internalType": "bytes32",
          "name": "role",
          "type": "bytes32"
        },
        {
          "indexed": true,
          "internalType": "address",
          "name": "account",
          "type": "address"
        },
        {
          "indexed": true,
          "internalType": "address",
          "name": "sender",
          "type": "address"
        }
      ],
      "name": "RoleGranted",
      "type": "event"
    },
    {
      "anonymous": false,
      "inputs": [
        {
          "indexed": true,
          "internalType": "bytes32",
          "name": "role",
          "type": "bytes32"
        },
        {
          "indexed": true,
          "internalType": "address",
          "name": "account",
          "type": "address"
        },
        {
          "indexed": true,
          "internalType": "address",
          "name": "sender",
          "type": "address"
        }
      ],
      "name": "RoleRevoked",
      "type": "event"
    },
    {
      "inputs": [],
      "name": "DEFAULT_ADMIN_ROLE",
      "outputs": [
        {
          "internalType": "bytes32",
          "name": "",
          "type": "bytes32"
        }
      ],
      "stateMutability": "view",
      "type": "function",
      "constant": true
    },
    {
      "inputs": [],
      "name": "HASH_WRITER",
      "outputs": [
        {
          "internalType": "bytes32",
          "name": "",
          "type": "bytes32"
        }
      ],
      "stateMutability": "view",
      "type": "function",
      "constant": true
    },
    {
      "inputs": [
        {
          "internalType": "bytes32",
          "name": "role",
          "type": "bytes32"
        }
      ],
      "name": "getRoleAdmin",
      "outputs": [
        {
          "internalType": "bytes32",
          "name": "",
          "type": "bytes32"
        }
      ],
      "stateMutability": "view",
      "type": "function",
      "constant": true
    },
    {
      "inputs": [
        {
          "internalType": "bytes32",
          "name": "role",
          "type": "bytes32"
        },
        {
          "internalType": "uint256",
          "name": "index",
          "type": "uint256"
        }
      ],
      "name": "getRoleMember",
      "outputs": [
        {
          "internalType": "address",
          "name": "",
          "type": "address"
        }
      ],
      "stateMutability": "view",
      "type": "function",
      "constant": true
    },
    {
      "inputs": [
        {
          "internalType": "bytes32",
          "name": "role",
          "type": "bytes32"
        }
      ],
      "name": "getRoleMemberCount",
      "outputs": [
        {
          "internalType": "uint256",
          "name": "",
          "type": "uint256"
        }
      ],
      "stateMutability": "view",
      "type": "function",
      "constant": true
    },
    {
      "inputs": [
        {
          "internalType": "bytes32",
          "name": "role",
          "type": "bytes32"
        },
        {
          "internalType": "address",
          "name": "account",
          "type": "address"
        }
      ],
      "name": "grantRole",
      "outputs": [],
      "stateMutability": "nonpayable",
      "type": "function"
    },
    {
      "inputs": [
        {
          "internalType": "bytes32",
          "name": "role",
          "type": "bytes32"
        },
        {
          "internalType": "address",
          "name": "account",
          "type": "address"
        }
      ],
      "name": "hasRole",
      "outputs": [
        {
          "internalType": "bool",
          "name": "",
          "type": "bool"
        }
      ],
      "stateMutability": "view",
      "type": "function",
      "constant": true
    },
    {
      "inputs": [],
      "name": "owner",
      "outputs": [
        {
          "internalType": "address",
          "name": "",
          "type": "address"
        }
      ],
      "stateMutability": "view",
      "type": "function",
      "constant": true
    },
    {
      "inputs": [],
      "name": "renounceOwnership",
      "outputs": [],
      "stateMutability": "nonpayable",
      "type": "function"
    },
    {
      "inputs": [
        {
          "internalType": "bytes32",
          "name": "role",
          "type": "bytes32"
        },
        {
          "internalType": "address",
          "name": "account",
          "type": "address"
        }
      ],
      "name": "renounceRole",
      "outputs": [],
      "stateMutability": "nonpayable",
      "type": "function"
    },
    {
      "inputs": [
        {
          "internalType": "bytes32",
          "name": "role",
          "type": "bytes32"
        },
        {
          "internalType": "address",
          "name": "account",
          "type": "address"
        }
      ],
      "name": "revokeRole",
      "outputs": [],
      "stateMutability": "nonpayable",
      "type": "function"
    },
    {
      "inputs": [
        {
          "internalType": "bytes4",
          "name": "interfaceId",
          "type": "bytes4"
        }
      ],
      "name": "supportsInterface",
      "outputs": [
        {
          "internalType": "bool",
          "name": "",
          "type": "bool"
        }
      ],
      "stateMutability": "view",
      "type": "function",
      "constant": true
    },
    {
      "inputs": [
        {
          "internalType": "address",
          "name": "newOwner",
          "type": "address"
        }
      ],
      "name": "transferOwnership",
      "outputs": [],
      "stateMutability": "nonpayable",
      "type": "function"
    },
    {
      "inputs": [
        {
          "internalType": "address",
          "name": "_hashWriter",
          "type": "address"
        }
      ],
      "name": "setHashWriterRole",
      "outputs": [],
      "stateMutability": "nonpayable",
      "type": "function"
    },
    {
      "inputs": [
        {
          "internalType": "string",
          "name": "_url",
          "type": "string"
        },
        {
          "internalType": "bytes32",
          "name": "_hash",
          "type": "bytes32"
        }
      ],
      "name": "addNewDocument",
      "outputs": [],
      "stateMutability": "nonpayable",
      "type": "function"
    },
    {
      "inputs": [
        {
          "internalType": "uint256",
          "name": "_num",
          "type": "uint256"
        }
      ],
      "name": "getDocInfo",
      "outputs": [
        {
          "internalType": "string",
          "name": "",
          "type": "string"
        },
        {
          "internalType": "bytes32",
          "name": "",
          "type": "bytes32"
        }
      ],
      "stateMutability": "view",
      "type": "function",
      "constant": true
    },
    {
      "inputs": [],
      "name": "getDocsCount",
      "outputs": [
        {
          "internalType": "uint256",
          "name": "",
          "type": "uint256"
        }
      ],
      "stateMutability": "view",
      "type": "function",
      "constant": true
    },
    {
      "inputs": [
        {
          "internalType": "bytes32",
          "name": "_hash",
          "type": "bytes32"
        }
      ],
      "name": "getRegisteredHash",
      "outputs": [
        {
          "internalType": "bool",
          "name": "",
          "type": "bool"
        }
      ],
      "stateMutability": "view",
      "type": "function",
      "constant": true
    }
  ],
  "bytecode": "0x608060405234801562000010575f80fd5b5062000031620000256200005a60201b60201c565b6200006160201b60201c565b620000545f801b620000486200005a60201b60201c565b6200012260201b60201c565b62000389565b5f33905090565b5f805f9054906101000a900473ffffffffffffffffffffffffffffffffffffffff169050815f806101000a81548173ffffffffffffffffffffffffffffffffffffffff021916908373ffffffffffffffffffffffffffffffffffffffff1602179055508173ffffffffffffffffffffffffffffffffffffffff168173ffffffffffffffffffffffffffffffffffffffff167f8be0079c531659141344cd1fd0a4f28419497f9722a3daafe3b4186f6b6457e060405160405180910390a35050565b6200013482826200013860201b60201c565b5050565b6200014a82826200017460201b60201c565b6200016f8160025f8581526020019081526020015f206200025f60201b90919060201c565b505050565b6200018682826200029460201b60201c565b6200025b576001805f8481526020019081526020015f205f015f8373ffffffffffffffffffffffffffffffffffffffff1673ffffffffffffffffffffffffffffffffffffffff1681526020019081526020015f205f6101000a81548160ff021916908315150217905550620002006200005a60201b60201c565b73ffffffffffffffffffffffffffffffffffffffff168173ffffffffffffffffffffffffffffffffffffffff16837f2f8788117e7eff1d82e926ec794901d17c78024a50270940304540a733656f0d60405160405180910390a45b5050565b5f6200028c835f018373ffffffffffffffffffffffffffffffffffffffff165f1b620002f860201b60201c565b905092915050565b5f60015f8481526020019081526020015f205f015f8373ffffffffffffffffffffffffffffffffffffffff1673ffffffffffffffffffffffffffffffffffffffff1681526020019081526020015f205f9054906101000a900460ff16905092915050565b5f6200030b83836200036960201b60201c565b6200035f57825f0182908060018154018082558091505060019003905f5260205f20015f9091909190915055825f0180549050836001015f8481526020019081526020015f20819055506001905062000363565b5f90505b92915050565b5f80836001015f8481526020019081526020015f20541415905092915050565b61205280620003975f395ff3fe608060405234801561000f575f80fd5b5060043610610114575f3560e01c80639010d07c116100a0578063abb0688f1161006f578063abb0688f146102f3578063b46beb4f1461030f578063ca15c8731461032b578063d547741f1461035b578063f2fde38b1461037757610114565b80639010d07c1461025757806391d14854146102875780639e8cb6bd146102b7578063a217fddf146102d557610114565b806334efe036116100e757806334efe036146101b257806336568abe146101e25780636138fede146101fe578063715018a61461022f5780638da5cb5b1461023957610114565b806301ffc9a7146101185780632220de2114610148578063248a9ca3146101665780632f2ff15d14610196575b5f80fd5b610132600480360381019061012d919061134a565b610393565b60405161013f919061138f565b60405180910390f35b61015061040c565b60405161015d91906113c0565b60405180910390f35b610180600480360381019061017b9190611403565b610430565b60405161018d91906113c0565b60405180910390f35b6101b060048036038101906101ab9190611488565b61044d565b005b6101cc60048036038101906101c79190611403565b61046e565b6040516101d9919061138f565b60405180910390f35b6101fc60048036038101906101f79190611488565b610494565b005b610218600480360381019061021391906114f9565b610517565b6040516102269291906115ae565b60405180910390f35b610237610620565b005b610241610633565b60405161024e91906115eb565b60405180910390f35b610271600480360381019061026c9190611604565b61065a565b60405161027e91906115eb565b60405180910390f35b6102a1600480360381019061029c9190611488565b610686565b6040516102ae919061138f565b60405180910390f35b6102bf6106ea565b6040516102cc9190611651565b60405180910390f35b6102dd6106fa565b6040516102ea91906113c0565b60405180910390f35b61030d60048036038101906103089190611796565b610700565b005b610329600480360381019061032491906117f0565b61084e565b005b61034560048036038101906103409190611403565b610888565b6040516103529190611651565b60405180910390f35b61037560048036038101906103709190611488565b6108a9565b005b610391600480360381019061038c91906117f0565b6108ca565b005b5f7f5a05180f000000000000000000000000000000000000000000000000000000007bffffffffffffffffffffffffffffffffffffffffffffffffffffffff1916827bffffffffffffffffffffffffffffffffffffffffffffffffffffffff1916148061040557506104048261094c565b5b9050919050565b7f9bd7b39e404ec8163ddb5278c0044198ca50a2bf864985cbc93f934a5afed5d681565b5f60015f8381526020019081526020015f20600101549050919050565b61045682610430565b61045f816109c5565b61046983836109d9565b505050565b5f60055f8381526020019081526020015f205f9054906101000a900460ff169050919050565b61049c610a0b565b73ffffffffffffffffffffffffffffffffffffffff168173ffffffffffffffffffffffffffffffffffffffff1614610509576040517f08c379a00000000000000000000000000000000000000000000000000000000081526004016105009061188b565b60405180910390fd5b6105138282610a12565b5050565b60605f6105246003610a44565b8310610565576040517f08c379a000000000000000000000000000000000000000000000000000000000815260040161055c906118f3565b60405180910390fd5b60045f8481526020019081526020015f205f0160045f8581526020019081526020015f20600101548180546105999061193e565b80601f01602080910402602001604051908101604052809291908181526020018280546105c59061193e565b80156106105780601f106105e757610100808354040283529160200191610610565b820191905f5260205f20905b8154815290600101906020018083116105f357829003601f168201915b5050505050915091509150915091565b610628610a50565b6106315f610ace565b565b5f805f9054906101000a900473ffffffffffffffffffffffffffffffffffffffff16905090565b5f61067e8260025f8681526020019081526020015f20610b8f90919063ffffffff16565b905092915050565b5f60015f8481526020019081526020015f205f015f8373ffffffffffffffffffffffffffffffffffffffff1673ffffffffffffffffffffffffffffffffffffffff1681526020019081526020015f205f9054906101000a900460ff16905092915050565b5f6106f56003610a44565b905090565b5f801b81565b7f9bd7b39e404ec8163ddb5278c0044198ca50a2bf864985cbc93f934a5afed5d661072a816109c5565b60055f8381526020019081526020015f205f9054906101000a900460ff16610787576040517f08c379a000000000000000000000000000000000000000000000000000000000815260040161077e906119b8565b60405180910390fd5b5f6107926003610a44565b905060405180604001604052808581526020018481525060045f8381526020019081526020015f205f820151815f0190816107cd9190611b73565b5060208201518160010155905050600160055f8581526020019081526020015f205f6101000a81548160ff02191690831515021790555061080e6003610ba6565b807f3652677d7cefd12c889b15a7ced31cc0e0d120417a9febcb93eddf8ce7b43f9885856040516108409291906115ae565b60405180910390a250505050565b5f801b61085a816109c5565b6108847f9bd7b39e404ec8163ddb5278c0044198ca50a2bf864985cbc93f934a5afed5d68361044d565b5050565b5f6108a260025f8481526020019081526020015f20610bba565b9050919050565b6108b282610430565b6108bb816109c5565b6108c58383610a12565b505050565b6108d2610a50565b5f73ffffffffffffffffffffffffffffffffffffffff168173ffffffffffffffffffffffffffffffffffffffff1603610940576040517f08c379a000000000000000000000000000000000000000000000000000000000815260040161093790611cb2565b60405180910390fd5b61094981610ace565b50565b5f7f7965db0b000000000000000000000000000000000000000000000000000000007bffffffffffffffffffffffffffffffffffffffffffffffffffffffff1916827bffffffffffffffffffffffffffffffffffffffffffffffffffffffff191614806109be57506109bd82610bcd565b5b9050919050565b6109d6816109d1610a0b565b610c36565b50565b6109e38282610cba565b610a068160025f8581526020019081526020015f20610d9490919063ffffffff16565b505050565b5f33905090565b610a1c8282610dc1565b610a3f8160025f8581526020019081526020015f20610e9c90919063ffffffff16565b505050565b5f815f01549050919050565b610a58610a0b565b73ffffffffffffffffffffffffffffffffffffffff16610a76610633565b73ffffffffffffffffffffffffffffffffffffffff1614610acc576040517f08c379a0000000000000000000000000000000000000000000000000000000008152600401610ac390611d1a565b60405180910390fd5b565b5f805f9054906101000a900473ffffffffffffffffffffffffffffffffffffffff169050815f806101000a81548173ffffffffffffffffffffffffffffffffffffffff021916908373ffffffffffffffffffffffffffffffffffffffff1602179055508173ffffffffffffffffffffffffffffffffffffffff168173ffffffffffffffffffffffffffffffffffffffff167f8be0079c531659141344cd1fd0a4f28419497f9722a3daafe3b4186f6b6457e060405160405180910390a35050565b5f610b9c835f0183610ec9565b5f1c905092915050565b6001815f015f828254019250508190555050565b5f610bc6825f01610ef0565b9050919050565b5f7f01ffc9a7000000000000000000000000000000000000000000000000000000007bffffffffffffffffffffffffffffffffffffffffffffffffffffffff1916827bffffffffffffffffffffffffffffffffffffffffffffffffffffffff1916149050919050565b610c408282610686565b610cb657610c4d81610eff565b610c5a835f1c6020610f2c565b604051602001610c6b929190611e06565b6040516020818303038152906040526040517f08c379a0000000000000000000000000000000000000000000000000000000008152600401610cad9190611e3f565b60405180910390fd5b5050565b610cc48282610686565b610d90576001805f8481526020019081526020015f205f015f8373ffffffffffffffffffffffffffffffffffffffff1673ffffffffffffffffffffffffffffffffffffffff1681526020019081526020015f205f6101000a81548160ff021916908315150217905550610d35610a0b565b73ffffffffffffffffffffffffffffffffffffffff168173ffffffffffffffffffffffffffffffffffffffff16837f2f8788117e7eff1d82e926ec794901d17c78024a50270940304540a733656f0d60405160405180910390a45b5050565b5f610db9835f018373ffffffffffffffffffffffffffffffffffffffff165f1b611161565b905092915050565b610dcb8282610686565b15610e98575f60015f8481526020019081526020015f205f015f8373ffffffffffffffffffffffffffffffffffffffff1673ffffffffffffffffffffffffffffffffffffffff1681526020019081526020015f205f6101000a81548160ff021916908315150217905550610e3d610a0b565b73ffffffffffffffffffffffffffffffffffffffff168173ffffffffffffffffffffffffffffffffffffffff16837ff6391f5c32d9c69d2a47ea670b442974b53935d1edc7fd64eb21e047a839171b60405160405180910390a45b5050565b5f610ec1835f018373ffffffffffffffffffffffffffffffffffffffff165f1b6111c8565b905092915050565b5f825f018281548110610edf57610ede611e5f565b5b905f5260205f200154905092915050565b5f815f01805490509050919050565b6060610f258273ffffffffffffffffffffffffffffffffffffffff16601460ff16610f2c565b9050919050565b60605f6002836002610f3e9190611eb9565b610f489190611efa565b67ffffffffffffffff811115610f6157610f60611672565b5b6040519080825280601f01601f191660200182016040528015610f935781602001600182028036833780820191505090505b5090507f3000000000000000000000000000000000000000000000000000000000000000815f81518110610fca57610fc9611e5f565b5b60200101907effffffffffffffffffffffffffffffffffffffffffffffffffffffffffffff191690815f1a9053507f78000000000000000000000000000000000000000000000000000000000000008160018151811061102d5761102c611e5f565b5b60200101907effffffffffffffffffffffffffffffffffffffffffffffffffffffffffffff191690815f1a9053505f600184600261106b9190611eb9565b6110759190611efa565b90505b6001811115611114577f3031323334353637383961626364656600000000000000000000000000000000600f8616601081106110b7576110b6611e5f565b5b1a60f81b8282815181106110ce576110cd611e5f565b5b60200101907effffffffffffffffffffffffffffffffffffffffffffffffffffffffffffff191690815f1a905350600485901c94508061110d90611f2d565b9050611078565b505f8414611157576040517f08c379a000000000000000000000000000000000000000000000000000000000815260040161114e90611f9e565b60405180910390fd5b8091505092915050565b5f61116c83836112c4565b6111be57825f0182908060018154018082558091505060019003905f5260205f20015f9091909190915055825f0180549050836001015f8481526020019081526020015f2081905550600190506111c2565b5f90505b92915050565b5f80836001015f8481526020019081526020015f205490505f81146112b9575f6001826111f59190611fbc565b90505f6001865f018054905061120b9190611fbc565b9050818114611271575f865f01828154811061122a57611229611e5f565b5b905f5260205f200154905080875f01848154811061124b5761124a611e5f565b5b905f5260205f20018190555083876001015f8381526020019081526020015f2081905550505b855f0180548061128457611283611fef565b5b600190038181905f5260205f20015f90559055856001015f8681526020019081526020015f205f9055600193505050506112be565b5f9150505b92915050565b5f80836001015f8481526020019081526020015f20541415905092915050565b5f604051905090565b5f80fd5b5f80fd5b5f7fffffffff0000000000000000000000000000000000000000000000000000000082169050919050565b611329816112f5565b8114611333575f80fd5b50565b5f8135905061134481611320565b92915050565b5f6020828403121561135f5761135e6112ed565b5b5f61136c84828501611336565b91505092915050565b5f8115159050919050565b61138981611375565b82525050565b5f6020820190506113a25f830184611380565b92915050565b5f819050919050565b6113ba816113a8565b82525050565b5f6020820190506113d35f8301846113b1565b92915050565b6113e2816113a8565b81146113ec575f80fd5b50565b5f813590506113fd816113d9565b92915050565b5f60208284031215611418576114176112ed565b5b5f611425848285016113ef565b91505092915050565b5f73ffffffffffffffffffffffffffffffffffffffff82169050919050565b5f6114578261142e565b9050919050565b6114678161144d565b8114611471575f80fd5b50565b5f813590506114828161145e565b92915050565b5f806040838503121561149e5761149d6112ed565b5b5f6114ab858286016113ef565b92505060206114bc85828601611474565b9150509250929050565b5f819050919050565b6114d8816114c6565b81146114e2575f80fd5b50565b5f813590506114f3816114cf565b92915050565b5f6020828403121561150e5761150d6112ed565b5b5f61151b848285016114e5565b91505092915050565b5f81519050919050565b5f82825260208201905092915050565b5f5b8381101561155b578082015181840152602081019050611540565b5f8484015250505050565b5f601f19601f8301169050919050565b5f61158082611524565b61158a818561152e565b935061159a81856020860161153e565b6115a381611566565b840191505092915050565b5f6040820190508181035f8301526115c68185611576565b90506115d560208301846113b1565b9392505050565b6115e58161144d565b82525050565b5f6020820190506115fe5f8301846115dc565b92915050565b5f806040838503121561161a576116196112ed565b5b5f611627858286016113ef565b9250506020611638858286016114e5565b9150509250929050565b61164b816114c6565b82525050565b5f6020820190506116645f830184611642565b92915050565b5f80fd5b5f80fd5b7f4e487b71000000000000000000000000000000000000000000000000000000005f52604160045260245ffd5b6116a882611566565b810181811067ffffffffffffffff821117156116c7576116c6611672565b5b80604052505050565b5f6116d96112e4565b90506116e5828261169f565b919050565b5f67ffffffffffffffff82111561170457611703611672565b5b61170d82611566565b9050602081019050919050565b828183375f83830152505050565b5f61173a611735846116ea565b6116d0565b9050828152602081018484840111156117565761175561166e565b5b61176184828561171a565b509392505050565b5f82601f83011261177d5761177c61166a565b5b813561178d848260208601611728565b91505092915050565b5f80604083850312156117ac576117ab6112ed565b5b5f83013567ffffffffffffffff8111156117c9576117c86112f1565b5b6117d585828601611769565b92505060206117e6858286016113ef565b9150509250929050565b5f60208284031215611805576118046112ed565b5b5f61181284828501611474565b91505092915050565b7f416363657373436f6e74726f6c3a2063616e206f6e6c792072656e6f756e63655f8201527f20726f6c657320666f722073656c660000000000000000000000000000000000602082015250565b5f611875602f8361152e565b91506118808261181b565b604082019050919050565b5f6020820190508181035f8301526118a281611869565b9050919050565b7f526571756573746564206e756d62657220646f6573206e6f74206578697374005f82015250565b5f6118dd601f8361152e565b91506118e8826118a9565b602082019050919050565b5f6020820190508181035f83015261190a816118d1565b9050919050565b7f4e487b71000000000000000000000000000000000000000000000000000000005f52602260045260245ffd5b5f600282049050600182168061195557607f821691505b60208210810361196857611967611911565b5b50919050565b7f48617320616c7265616479206e6f746172697a656400000000000000000000005f82015250565b5f6119a260158361152e565b91506119ad8261196e565b602082019050919050565b5f6020820190508181035f8301526119cf81611996565b9050919050565b5f819050815f5260205f209050919050565b5f6020601f8301049050919050565b5f82821b905092915050565b5f60088302611a327fffffffffffffffffffffffffffffffffffffffffffffffffffffffffffffffff826119f7565b611a3c86836119f7565b95508019841693508086168417925050509392505050565b5f819050919050565b5f611a77611a72611a6d846114c6565b611a54565b6114c6565b9050919050565b5f819050919050565b611a9083611a5d565b611aa4611a9c82611a7e565b848454611a03565b825550505050565b5f90565b611ab8611aac565b611ac3818484611a87565b505050565b5b81811015611ae657611adb5f82611ab0565b600181019050611ac9565b5050565b601f821115611b2b57611afc816119d6565b611b05846119e8565b81016020851015611b14578190505b611b28611b20856119e8565b830182611ac8565b50505b505050565b5f82821c905092915050565b5f611b4b5f1984600802611b30565b1980831691505092915050565b5f611b638383611b3c565b9150826002028217905092915050565b611b7c82611524565b67ffffffffffffffff811115611b9557611b94611672565b5b611b9f825461193e565b611baa828285611aea565b5f60209050601f831160018114611bdb575f8415611bc9578287015190505b611bd38582611b58565b865550611c3a565b601f198416611be9866119d6565b5f5b82811015611c1057848901518255600182019150602085019450602081019050611beb565b86831015611c2d5784890151611c29601f891682611b3c565b8355505b6001600288020188555050505b505050505050565b7f4f776e61626c653a206e6577206f776e657220697320746865207a65726f20615f8201527f6464726573730000000000000000000000000000000000000000000000000000602082015250565b5f611c9c60268361152e565b9150611ca782611c42565b604082019050919050565b5f6020820190508181035f830152611cc981611c90565b9050919050565b7f4f776e61626c653a2063616c6c6572206973206e6f7420746865206f776e65725f82015250565b5f611d0460208361152e565b9150611d0f82611cd0565b602082019050919050565b5f6020820190508181035f830152611d3181611cf8565b9050919050565b5f81905092915050565b7f416363657373436f6e74726f6c3a206163636f756e74200000000000000000005f82015250565b5f611d76601783611d38565b9150611d8182611d42565b601782019050919050565b5f611d9682611524565b611da08185611d38565b9350611db081856020860161153e565b80840191505092915050565b7f206973206d697373696e6720726f6c65200000000000000000000000000000005f82015250565b5f611df0601183611d38565b9150611dfb82611dbc565b601182019050919050565b5f611e1082611d6a565b9150611e1c8285611d8c565b9150611e2782611de4565b9150611e338284611d8c565b91508190509392505050565b5f6020820190508181035f830152611e578184611576565b905092915050565b7f4e487b71000000000000000000000000000000000000000000000000000000005f52603260045260245ffd5b7f4e487b71000000000000000000000000000000000000000000000000000000005f52601160045260245ffd5b5f611ec3826114c6565b9150611ece836114c6565b9250828202611edc816114c6565b91508282048414831517611ef357611ef2611e8c565b5b5092915050565b5f611f04826114c6565b9150611f0f836114c6565b9250828201905080821115611f2757611f26611e8c565b5b92915050565b5f611f37826114c6565b91505f8203611f4957611f48611e8c565b5b600182039050919050565b7f537472696e67733a20686578206c656e67746820696e73756666696369656e745f82015250565b5f611f8860208361152e565b9150611f9382611f54565b602082019050919050565b5f6020820190508181035f830152611fb581611f7c565b9050919050565b5f611fc6826114c6565b9150611fd1836114c6565b9250828203905081811115611fe957611fe8611e8c565b5b92915050565b7f4e487b71000000000000000000000000000000000000000000000000000000005f52603160045260245ffdfea2646970667358221220d6d748a388c5c3547b208af52bffbca9b4d4c99dd8900fa772b41c88ca734e5c64736f6c63430008150033",
  "immutableReferences": {},
  "source": "// SPDX-License-Identifier: MIT\npragma solidity ^0.8.19;\n\nimport \"@openzeppelin/contracts/access/Ownable.sol\";\n// Counters.sol non  presente nell'ultima versione (alternativa: variabile uint incrementale)\nimport \"@openzeppelin/contracts/utils/Counters.sol\";\n// AccessControlEnumerable.sol non  presente nell'ultima versione (importa gi funzioni da AbstractControl)\nimport \"@openzeppelin/contracts/access/AccessControlEnumerable.sol\";\n\ncontract Notarize is Ownable, AccessControlEnumerable {\n    // direttiva-> tutte le variabili di tipo Counters.Counter potranno usare le funzioni\n    using Counters for Counters.Counter;\n\n    // Inizializzo una costante calcolando l'hash da stringa\n    // Rappresenta un ruolo al quale assegnare specifiche funzionalit\n    bytes32 public constant HASH_WRITER = keccak256(\"HASH_WRITER\");\n    \n    // Inizializzo un contatore\n    Counters.Counter private _documentsCounter;\n\n    // Creo un oggetto che rappresenta un documento con due propriet\n    struct Doc {\n        string documentUrl; // dove  memorizzato\n        bytes32 documentHash; // hash\n    }\n\n    // Mappatura per memorizzare i documenti (associo un id che sar il contatore)\n    mapping(uint256 => Doc) private _documents;\n    // Mappatura per memorizzare gli hashes rifiutati\n    mapping(bytes32 => bool) private _registerHash;\n\n    // Inizializzo un evento triggerato per ogni creazione di un documento\n    event DocHashAdded (uint256 indexed documentCounter, string documentUrl, bytes32 documentHash);\n\n    constructor() {\n        // Associo il ruolo di amministratore al creatore del contratto\n        _setupRole(DEFAULT_ADMIN_ROLE, _msgSender());\n    }\n\n    // Permette all'admin di associare il ruolo di notaio ad un indirizzo\n    function setHashWriterRole(address _hashWriter) external onlyRole(DEFAULT_ADMIN_ROLE){\n        grantRole(HASH_WRITER, _hashWriter);\n    }\n\n    function addNewDocument(string memory _url, bytes32 _hash) external onlyRole(HASH_WRITER){\n        // Controllo se l'hash  gi stato registrato\n        require(_registerHash[_hash], \"Has already notarized\");\n        // Inizializzo contatore\n        uint256 counter = _documentsCounter.current();\n        // Mappo il documento\n        _documents[counter] = Doc({documentUrl: _url, documentHash: _hash});\n        // Mappo l'hash\n        _registerHash[_hash] = true;\n        // Incremento il contatore\n        _documentsCounter.increment();\n        // Emetto l'evento con i dati\n        emit DocHashAdded(counter, _url, _hash);\n    }\n\n    // Recupera le info su un Documento specifico in base al suo numero\n    function getDocInfo(uint256 _num) external view returns(string memory, bytes32){\n        // Controllo se effettivamente esiste\n        require(_num < _documentsCounter.current(), \"Requested number does not exist\");\n\n        return (_documents[_num].documentUrl, _documents[_num].documentHash);\n    }\n\n    function getDocsCount() external view returns(uint256){\n        return _documentsCounter.current();\n    }\n\n    function getRegisteredHash(bytes32 _hash) external view returns(bool) {\n        return _registerHash[_hash];\n    }\n}",
  "sourcePath": "/Users/francescodinardo/Notarization/contracts/Notarize.sol",
  "compiler": {
    "name": "solc",
    "version": "0.8.21+commit.d9974bed.Emscripten.clang"
  },
  "schemaVersion": "3.4.16",
  "updatedAt": "2024-06-26T14:43:23.397Z",
  "networkType": "ethereum",
  "devdoc": {
    "events": {
      "RoleAdminChanged(bytes32,bytes32,bytes32)": {
        "details": "Emitted when `newAdminRole` is set as ``role``'s admin role, replacing `previousAdminRole` `DEFAULT_ADMIN_ROLE` is the starting admin for all roles, despite {RoleAdminChanged} not being emitted signaling this. _Available since v3.1._"
      },
      "RoleGranted(bytes32,address,address)": {
        "details": "Emitted when `account` is granted `role`. `sender` is the account that originated the contract call, an admin role bearer except when using {AccessControl-_setupRole}."
      },
      "RoleRevoked(bytes32,address,address)": {
        "details": "Emitted when `account` is revoked `role`. `sender` is the account that originated the contract call:   - if using `revokeRole`, it is the admin role bearer   - if using `renounceRole`, it is the role bearer (i.e. `account`)"
      }
    },
    "kind": "dev",
    "methods": {
      "getRoleAdmin(bytes32)": {
        "details": "Returns the admin role that controls `role`. See {grantRole} and {revokeRole}. To change a role's admin, use {_setRoleAdmin}."
      },
      "getRoleMember(bytes32,uint256)": {
        "details": "Returns one of the accounts that have `role`. `index` must be a value between 0 and {getRoleMemberCount}, non-inclusive. Role bearers are not sorted in any particular way, and their ordering may change at any point. WARNING: When using {getRoleMember} and {getRoleMemberCount}, make sure you perform all queries on the same block. See the following https://forum.openzeppelin.com/t/iterating-over-elements-on-enumerableset-in-openzeppelin-contracts/2296[forum post] for more information."
      },
      "getRoleMemberCount(bytes32)": {
        "details": "Returns the number of accounts that have `role`. Can be used together with {getRoleMember} to enumerate all bearers of a role."
      },
      "grantRole(bytes32,address)": {
        "details": "Grants `role` to `account`. If `account` had not been already granted `role`, emits a {RoleGranted} event. Requirements: - the caller must have ``role``'s admin role. May emit a {RoleGranted} event."
      },
      "hasRole(bytes32,address)": {
        "details": "Returns `true` if `account` has been granted `role`."
      },
      "owner()": {
        "details": "Returns the address of the current owner."
      },
      "renounceOwnership()": {
        "details": "Leaves the contract without owner. It will not be possible to call `onlyOwner` functions. Can only be called by the current owner. NOTE: Renouncing ownership will leave the contract without an owner, thereby disabling any functionality that is only available to the owner."
      },
      "renounceRole(bytes32,address)": {
        "details": "Revokes `role` from the calling account. Roles are often managed via {grantRole} and {revokeRole}: this function's purpose is to provide a mechanism for accounts to lose their privileges if they are compromised (such as when a trusted device is misplaced). If the calling account had been revoked `role`, emits a {RoleRevoked} event. Requirements: - the caller must be `account`. May emit a {RoleRevoked} event."
      },
      "revokeRole(bytes32,address)": {
        "details": "Revokes `role` from `account`. If `account` had been granted `role`, emits a {RoleRevoked} event. Requirements: - the caller must have ``role``'s admin role. May emit a {RoleRevoked} event."
      },
      "supportsInterface(bytes4)": {
        "details": "See {IERC165-supportsInterface}."
      },
      "transferOwnership(address)": {
        "details": "Transfers ownership of the contract to a new account (`newOwner`). Can only be called by the current owner."
      }
    },
    "version": 1
  },
  "userdoc": {
    "kind": "user",
    "methods": {},
    "version": 1
  }
}